:10000000002000100D010000D5000000D900000004
:1000100000000000000000000000000000000000E0
:10002000000000000000000000000000DD000000F3
:100030000000000000000000E1000000D106000008
:100040005101000051010000510100005101000068
:100050005101000051010000510100005101000058
:100060005101000051010000510100005101000048
:10007000510100002D10000051010000510100004D
:100080005101000051010000510100005101000028
:1000900051010000510100000000000000000000BC
:1000A00005040000510100005101000000000000A3
:1000B00051010000510100005101000051010000F8
:1000C000182800000001001050000000500100102E
:1000D0003410000000B5FEE700B5FEE700B5FEE70E
:1000E00000B5FEE700B5FEE710B5002302E01C589E
:1000F000043310C19342FAD310BD10B5031C002283
:1001000000E004C31C1A8C42FBD310BD38B50D4C63
:100110000D4D05E020686168A2680C34FFF7E4FF2C
:10012000AC42F7D305E0206861680834FFF7E5FFCB
:1001300000E0064DAC42F6D301F0C8F901F016FA22
:10014000FEE7C046C0000000CC000000D400000064
:1001500000B5FEE780B500AF00F0F6FA00F00CFF46
:10016000882001F0FBF8FA239B00181C00F050FDDA
:10017000084B181C00F062F900F0CAFA00F0E6FE25
:1001800000F016FB00F008F800F0FEFB012000F084
:10019000ABFAF3E77801001090B587B000AF3B1CD5
:1001A000083300221A80BB1D00221A8068493A1CBD
:1001B0000832BB1D081C111C1A1C00F09BF93B1CCB
:1001C00008331B881BB2181C01F007FE031C181C07
:1001D000604901F011FC031C181C5F4901F078FD17
:1001E000031C7B61BB1D1B881BB2181C01F0F5FDB5
:1001F000031C181C584901F06BFD031C3B61786916
:10020000396901F0F9FB031CFB60544B1B68181C97
:10021000F96801F05DFD031C1A1C504B1A60504B2D
:100220001B68181C396901F053FD031C1A1C4C4B48
:100230001A6078694B4901F0DFFB031C181C01F0C0
:10024000D7FD031C0C1C181C211C404B3E4A01F01E
:1002500017FB031C0C1C181C211C01F0B1FB031C18
:100260009AB23B1C0A331A803B1C0A330320191C28
:1002700000F0CAFD38693B4901F0BEFB031C181CA5
:1002800001F0B6FD031C0C1C181C211C2F4B2E4A20
:1002900001F0F6FA031C0C1C181C211C01F090FB49
:1002A000031C9AB23B1C0A331A803B1C0A330420FD
:1002B000191C00F0A9FDF8682B4901F005FC031C8E
:1002C000181C01F095FD031C0C1C181C211C1F4B55
:1002D0001D4A01F0D5FA031C0C1C181C211C01F04E
:1002E0006FFB031C9AB23B1C0A331A803B1C0A3377
:1002F0000520191C00F088FD194B1B68181C1B49B0
:1003000001F0E2FB031C181C01F072FD031C0C1C25
:10031000181C211C0D4B0C4A01F0B2FA031C0C1CDA
:10032000181C211C01F04CFB031C9AB23B1C0A3325
:100330001A803B1C0A330620191C00F065FDBD46DF
:1003400007B090BDC046C046000000000000E03F7E
:10035000780100108C2D043D0000000058010010B1
:100360005C01001000007A440000C84200A00C4765
:1003700080B582B000AF021CFB1D1A70094B1B68D0
:10038000002007211A1C00F001FE064B1B685A4290
:100390005A41044B1A60044B00221A60BD4602B059
:1003A00080BDC046540100105001001080B500AF60
:1003B00000200721012200F0FDFD024B00221A60FF
:1003C000BD4680BD5001001080B500AF044B1B68D6
:1003D0001A1C591C024B1960131C181CBD4680BD09
:1003E0005001001080B582B000AF021CFB1D1A70D6
:1003F000FB1D1B78052B01D100F0B0FDBD4602B0FE
:1004000080BDC04680B500AF0A4BDB691B041B0CE6
:100410009B099AB2074BDB6A1B041B0C9B099BB21E
:10042000054912B21BB2081C111C1A1C00F02CF852
:10043000BD4680BD00C001407801001080B584B089
:1004400000AF78600023FB600FE07B68FA689200E1
:100450000021D1527968FA68022392008A18D318D1
:1004600000221A80FB680133FB60FA68054B9A4250
:10047000EBDD7A6880235B010021D150BD4604B0DA
:1004800080BDC046FF03000080B582B000AF786039
:10049000BB1C19803B1C1A807A6880235B01D258F0
:1004A0007B689200B91C0988D1527A6880235B016D
:1004B000D2587968022392008A18D3183A1C1288FD
:1004C0001A807A6880235B01D358591C7A6880238C
:1004D0005B01D1507A6880235B01D2588023DB0016
:1004E0009A4204D17A6880235B010021D150BD4635
:1004F00002B080BD80B588B000AFF860B9607A60A6
:100500000023FB610023BB61FA6880235B01D358A1
:10051000002B05D0FA6880235B01D358013B00E033
:100520001F4B7B611E4B3B612AE0FB687A6992009E
:10053000D35A1BB21B4A396949008A5A12B2534333
:10054000FA69D318FB61F9687A69022392008A1864
:10055000D3181B881BB2134A396949008A5A12B250
:100560005343BA69D318BB617A690D4B9A4202D0E2
:100570007B69013300E000237B613B69013B3B6108
:100580003B69002BD1DAFB695B159AB2BB681A8014
:10059000BB695B159AB27B681A80BD4608B080BD06
:1005A000FF0300001C1F0000B0B582B000AF021CAA
:1005B0003960FB1D1A70FB1D1B787F2B32D9304927
:1005C000FB1D1B781A1C0F231340083B98082C4A6C
:1005D000FB1D1B781C1C0F232340083B9B08063384
:1005E0009B00D3185B68FA1D1278141C032222406A
:1005F000D200FF24251C95402A1CD2431A403B6898
:100600009C01FF231C40FB1D1B781D1C03232B405A
:10061000DB00251C9D402B1C1A43831D9B00CB181F
:100620005A6029E0174BFA1D127852B29208154908
:10063000F81D007840B28008C03080004158F81D95
:100640000078041C03202040C000FF24251C8540A6
:10065000281CC043084039688C01FF210C40F91D5B
:1006600009780D1C03212940C900251C8D40291C37
:100670000143C0329200D150BD4602B0B0BDC04669
:1006800000ED00E000E100E080B582B000AF7860EE
:100690007B685A1E0C4B9A4201D9012310E00B4B88
:1006A0007A68013A5A6001235B42181C0321FFF764
:1006B0007BFF064B00229A60044B07221A6000233E
:1006C000181CBD4602B080BDFFFFFF0010E000E037
:1006D00080B500AF034B1B685A1C024B1A60BD4625
:1006E00080BDC0466001001080B584B000AF786066
:1006F000064B1B68FB60C046044B1A68FB68D21AA5
:100700007B689A42F8D3BD4604B080BD60010010FA
:1007100080B500AF0A4B00221A600A4B1B68181CF8
:10072000FA23990000F084FF031C1A1C131C9B0081
:100730009B185B00181CFFF7A7FFBD4680BDC04695
:10074000600100104C01001080B582B000AF0023A2
:100750007B6021E0144A7B685B01D3181C331B6863
:10076000002B06D0104A7B685B01D3181C331B6832
:1007700098470D4A7B685B01D31810331B68002B28
:1007800007D0094A7B685B01D31810331B6800222D
:100790001A607B6801337B60044B1B687A689A425D
:1007A000D8D3BD4602B080BDC0270000002800009D
:1007B00080B584B000AF0023FB6063E0FB685A01A2
:1007C000344BD3187B607B685B699847031C3B60A4
:1007D0000023BB607B685B78012B0BD0022B11D010
:1007E000002B21D17B685A683B689A4217D30123BA
:1007F000BB6014E07B685A683B689A4211D80123B9
:10080000BB600EE07B685A683B689A4204D37B6801
:100810009A683B689A4206D90123BB6003E0C04650
:1008200002E0C04600E0C046BB68002B1FD07B68DA
:10083000DB68012B06D17B689B697A681278101CF3
:1008400098471CE07B681B691A6801321A601A68B5
:100850007B68DB689A4212D37B689B697A6812785E
:10086000101C98477B681B6900221A6007E07B68B0
:10087000DB68012B03D97B681B6900221A60FB68C7
:100880000133FB60044B1B68FA689A4296D3BD465D
:1008900004B080BDC02700000028000080B500AF74
:1008A000024B1B68181CBD4680BDC0466401001089
:1008B00080B500AF024B00221A60BD4680BDC04625
:1008C0006401001080B584B000AF0A1CBB1D011C80
:1008D00019807B1D1A707B1D1B78012B25D1144BB1
:1008E0001A883B1C0F33101C191C00F04FFA114BD7
:1008F0001A883B1C0C33101C191C00F047FA3B1CD7
:100900000F331B78202B0FD13B1C0C331A880A4B5A
:100910001B889A4202D100F08DFC06E0022000F014
:100920002DF800F07FFC00E0C046BD4604B080BD5D
:10093000BC270000BA270000B827000080B582B0AD
:1009400000AF0A1CBB1D011C19807B1D1A70094BCE
:100950001B88BA1D12889A4209D17B1D1B78002B77
:1009600002D100F067FC02E0034B01221A60BD4691
:1009700002B080BDBE27000064010010014B18705A
:100980007047C04600010010F8B55F4656464D4618
:100990004446F0B492480378002B00D0EFE0914D2C
:1009A000296800292ED0904A002300248F4F904EB2
:1009B00090460EE0520042445288002A03D04989F2
:1009C000914200D1E1E001342868A4B2231C8442A2
:1009D00018D25900C8188300FA189368002BF2D077
:1009E0005288306851008A1891004118087A04280A
:1009F000E0D1201C0021984701342868A4B2231CB0
:100A00008442E6D37B4E3468002C38D076497A4D48
:100A1000002403220023764F8846A2469346A94627
:100A20000EE06989994200D1C6E053894B4501D057
:100A30000133538101343568A4B2231CAC421ED269
:100A40005800C1183A688D0055192B7A4800404467
:100A5000042B00D1A0E04388002BE2D12B7A022B9B
:100A6000E8D1018883882A1C201C00F0A3FB59468A
:100A7000297201343568A4B2231CAC42E0D35F4D27
:100A80002E68002E2ED05E4A002300245D4F5E4E5D
:100A900090460EE0500040444288002A03D0498925
:100AA000914200D97BE001342A68A4B2231C94420D
:100AB00018D25900CB1898003A189368002BF2D03E
:100AC0005288306851008A1891004118087A01282C
:100AD000E0D1201C0121984701342A68A4B2231CCC
:100AE0009442E6D3494F3C68002C48D0464E631EE2
:100AF000316801220D7A424F00261A40012D66D03E
:100B00007B88002B03D04889834262D24E81012327
:100B1000A34234D2002A0BD00A1C0C32157A012DC4
:100B20005AD03889002821D101339BB2A34226D262
:100B30005800C01882008A18157A012D36D040005E
:100B4000C5196888002803D05589A84231D256813A
:100B500001339BB25800C01882008A18157A012D03
:100B600021D04500E81940880028DDD05589A842E9
:100B70001AD3013301359BB25581A342D8D33CBC73
:100B800090469946A246AB46F8BD002800D11AE728
:100B9000201C0221984716E753462B725BE7201C66
:100BA000022198477FE716725681BDE7167256817B
:100BB000CEE701355581CBE7018883882A1C201CAC
:100BC00000F0F8FA5846524628726A8132E70E72EF
:100BD0009CE7013048819AE716725681A4E7C04627
:100BE00000010010A8270000942700001C27000027
:100BF0006C010010B0270000FFFF0000AC270000D0
:100C0000A02700007027000068010010B427000032
:100C1000F0B55F4656464D464446F0B4564D83B057
:100C20002B680190002B00D18CE0544E3768002FC8
:100C300000D193E0524803689A46524C226891468C
:100C4000002A3AD028680024131C013B08220127FF
:100C50000472448100211F4000F084FC0122BB4645
:100C600090460C274A4528D0594600290CD02868C0
:100C700002270C300472448100210822B84600F09B
:100C800071FC1827C84518D028680021C01908220F
:100C90000472448100F066FC29683A1C0C32881802
:100CA00001230472448100210822984400F05AFC78
:100CB000012080441837C845E6D15346002B34D074
:100CC00030680024013B01251D400472448100214D
:100CD00008220127A84600F045FC0C25574524D0E2
:100CE000404600280BD0306800210C30047244814B
:100CF0000822022700F036FC1825574515D0336826
:100D00000021581908220472448100F02BFC31683C
:100D10002A1C0C32881804724481002108220237F0
:100D200000F020FC18355745E9D1019800F088F90A
:100D3000154C0026267003B03CBC90469946A2464E
:100D4000AB46F0BD0F4C21684A005018800000F0FF
:100D500011FC2860002800D067E7ECE70849086824
:100D6000824647005744B80000F004FC3060002879
:100D700000D062E7DFE7C0466C0100106801001098
:100D8000B4270000B02700000001001070B50E1C51
:100D90001A490B68984200D3FEE743001A18184816
:100DA000940024186188174A4D006B181568980044
:100DB0002D1800F017FA2378012B18D0002B12D031
:100DC000022B09D0032B04D1301C291C082200F06F
:100DD000C5FB00F015FA70BD2279301CA918042259
:100DE00000F0BCFBF5E72479295D3170F1E720794B
:100DF00002222918301C00F0B1FBEAE7AC27000002
:100E0000702700006801001070B50E1C20490B68A7
:100E1000984200D3FEE743001A181E489400241895
:100E200061881D4A4D006B18156898002D1800F058
:100E3000D9F92378012B23D0002B1DD0022B14D0FD
:100E4000032B04D1281C311C082200F087FB648886
:100E500012496200101946008B195C88002C01D1E0
:100E600002232B7200F0CCF970BD2279311CA81836
:100E7000042200F073FBEAE7367821796E54E6E746
:100E80002079311C2818022200F068FBDFE7C046F9
:100E9000A82700001C2700006C0100109427000008
:100EA000044B41001B680A18910058180423037270
:100EB0007047C0466C01001038B55400A418031CDC
:100EC00009486500421992888A4200D038BD074D12
:100ED000A4002868191C001900F040FB2A680123AF
:100EE00011190B72F2E7C046A0270000680100103C
:100EF000124B8022985880210902014399508E217B
:100F00008A0099584020814399500D490220D022EF
:100F1000596298500021D420012219501A500948D2
:100F2000D8215A500268FA235A43074B03215A60CA
:100F3000AA205522196098609A607047008004408A
:100F4000810100000428000000400040024BAA205C
:100F5000552298609A6070470040004000B5BFF38A
:100F60004F8F034A034BDA60BFF34F8FFEE7C04653
:100F70000400FA0500ED00E0034A8023D058402128
:100F80000143D1507047C04600800440034B8000AD
:100F9000C35804208A408840C25070470828000087
:100FA000034B8000C35804228A40D0587047C04683
:100FB0000828000010B580000A4B002A08D1C2584A
:100FC00080231B02D05801248C40A043D05010BD78
:100FD000C25880231B020124D0588C40211C01439D
:100FE000D150F4E70828000008B5430702D50120D6
:100FF000FFF7C4FC08BDC04608B5FFF751FF08BDA8
:1010000030B5094B87B001AC1A6860741168051CD3
:101010008868103DC368201C9847217CAAB203A8A9
:10102000FFF74AFF07B030BD0401001008B5034BBD
:101030001A68116888684368984708BD0401001061
:10104000F0B55F4656464D464446F0B4504AFA2342
:101050008BB05901061C106800F0EAFA311C00F050
:10106000E7FA3F2501388D248709A601284030433F
:10107000484E09903168089708680121826808A8DD
:1010800013689847301C80C83D68AC68E1698847A0
:10109000414802689246002A61D0404C1023A34682
:1010A0005F4603AC3D8863743D49336825741F680F
:1010B0008946101C5946013804390122BD68024096
:1010C000088801924A462060A968201C626088470F
:1010D0005D46112001278046063557453FD0019ACD
:1010E000002A14D02B883768607423743D685946F1
:1010F0004888AB684A4620606260201C996888472F
:101100005D461220022780460C35574527D0298896
:1011100043462174316863742A1F10880A6820606E
:1011200090684B4663608368201C984741460131B4
:10113000CAB2EB8862749046326823746888136878
:1011400020609868494661608168201C8847424653
:101150000132D3B2023798460C355745D7D1114CDE
:10116000114D00272760C3266F61104DB200AB58A8
:101170000F4C80211C40080280270443BE01AC5064
:101180002E600BB03CBC90469946A246AB46F0BDE3
:101190004C01001004010010B4270000A427000037
:1011A000FF070000700100100000054000E100E0B2
:1011B000FF00FFFF10B586B001AC60740020019104
:1011C0000290111C03A81A1C237400F0C7F9044BE9
:1011D0001A68116888680369201C984706B010BD1A
:1011E00004010010044A802011688023013111603D
:1011F000024A8101D15070477001001000E100E007
:1012000000B5064B1A68013A1A60002A05DC8020F6
:10121000034A810100201160186000BD70010010B8
:1012200000E100E0024B082259690A435A61704705
:101230000000054000B5104B802298588021C9005D
:101240000143995098584021014399509858802162
:1012500049020143012099508BB09867074A39230E
:101260000193116881F30888054806A9036801A85D
:1012700098470BB000BDC046008004400000FF1F2F
:101280002801001030B5124D93B03220072405908C
:10129000069407942A6805A80EA990470E9B002B78
:1012A00002D0002013B030BD0A4BFA213422186856
:1012B000890000920194029400F0BAF92C6803901E
:1012C0000AA96846A0470A9843425841EAE7C0463F
:1012D000280100104C010010F0B593B0071C0D1C44
:1012E00000248B0702D0201C13B0F0BD124E072043
:1012F0003221059106900790326805A80EA9904703
:101300000E9B002BEFD1703738020C4F8022332117
:101310000295FA25530000910190A90038680393C3
:1013200000F086F9346804900AA96846A0470A9C30
:1013300063425C41D7E7C046280100104C01001011
:1013400000B50430044A80008358002BFCDA024ABE
:1013500011580804800D00BD00C00140F8B55F467B
:1013600056464D464446F0B4041E76D0494B80277D
:10137000DA5980218E0116438E25DE51AA00995834
:101380001020814399500023E20704D5424D0220EA
:101390002B6818600123A707FE0FB34604D03E4810
:1013A00002214268013311606607F50FAA4604D096
:1013B000394A0227916801330F602507E80F8146FB
:1013C00004D035490226CF6801333E60E006C20FE3
:1013D000904604D0304F02253E69013335606709DD
:1013E0000122174003D02C48013341690A60A60945
:1013F0000122164003D0284901338D692A60E5098E
:1014000031D126495943264B186800F011F9802143
:101410004A0214430002234B04431C60002D2CD1CC
:10142000002E2CD1002F2CD14446002C2BD14E461F
:10143000002E1ED15746002F27D15D460122002DD8
:1014400025D1184D184BC627EA60BC001959FF2654
:101450008022B1435004195118603CBC9046994613
:10146000A246AB46F8BD0C490120CA6901331060A1
:10147000C7E7032301229A40E3E70723FAE706239D
:10148000F8E70523F6E70423F4E70223F2E7012354
:10149000F0E7C046008004402C010010001D100041
:1014A0004C01001000C0014000E100E08020024B30
:1014B00042041A607047C04600E100E08020024A02
:1014C00041048023D150704700E100E010B51D4B6E
:1014D0008E229200995820208143995000221A624E
:1014E000C821C04601390029FBD101221A645A647F
:1014F00059645A64586C13491042FBD023228A6005
:101500008E22920088588024A04388500120DC68F5
:101510000C4A01210442FAD00320106700205167D1
:1015200050675167586F01220842FBD0054B0649AE
:101530009A67064BD967064B1A60064B1A60064B32
:101540001A6010BD008004405F0001000480044068
:1015500094800440988004409C80044008B500F0CA
:101560007CFC08BD08B500F08EFC08BD08B5FEF790
:10157000F1FD08BDF8B52D4BC61C1C68B608031E4E
:1015800052D080235B059C460027F31C37E022687D
:10159000A568624531D129686268614506D16968EC
:1015A000521803326260AA68A26028E0B24203D1F6
:1015B00080239B0523601EE09A420FD980239B0560
:1015C0002360231C0C33B100921B59186046033A68
:1015D0006660A16008604A608D6025E0002D0CD136
:1015E0009200801A00F064FC2B1C01301CD0802378
:1015F0009B0523606660231C15E0271C2C1C002C17
:10160000C5D10C3000F054FC231C421C0CD08023AC
:101610009B05036046608460002F02D1034B186075
:1016200000E0B860031C0C33181CF8BD7C110010DE
:10163000002931D00122D207030901E00901120972
:101640009942FBD9430801E0490052089942FBD96D
:1016500000E04908401A07D35241FAD30146104628
:10166000704749084018F7D29218FAD3401801463B
:1016700010467047CB0F00D04942021000D54042BF
:10168000534008B5FFF7D4FF0CBC521000D34042C2
:10169000002A00D549421847F446002000F001F81E
:1016A0006047704700000000F7B51F1C161C3C1C6B
:1016B0000A1C00900191031C391C301C544008D5B1
:1016C000802000063B18321C0098019900F0D8F8E1
:1016D000C3E0BA4202D309D19E4207D380254340DA
:1016E0002D0664195840624061404340604E614F8E
:1016F000150D0C0D2C1B2E40BE4200D1A0E0B442B3
:1017000000D196E01203090380267603120B090B21
:10171000324331431F2C4ED80E1CE640921B20272B
:10172000061CE6403C1BA1400E439E1BB3429B415E
:101730005B42011CD21AA140331C002905D0013B99
:10174000581C444260414942121AC02040030242E0
:101750004FD1D80FC90F5B000B43520002431C1C32
:101760001443A91E002C05D168E0180E1202024392
:101770001B020839500BF8D0500C04D1180F12017D
:1017800002431B010439D00C04D1980F920002438C
:101790009B000239100D04D1D80F520002435B00A8
:1017A0000139ED0AC80A854202D10C05A11853E09F
:1017B000E907002051E0352C1BD8271C203F0E1CC8
:1017C000FE409E1BB3429B415B42D21A40231C1B2E
:1017D000031CA140FB401943000602D0FF2319431C
:1017E00002E0331C002904D0731E7042704149424C
:1017F000121AD0020CD4013D6C0507D0D80F52004C
:1018000002435B00C80F0343490001E0290520E0C3
:1018100019480240002909DA013358425841121888
:1018200080200006814201D101218B432D055119F1
:1018300012E012498C4203D8002C0CD1211C08E084
:10184000110302D00749064807E0002C03D10648DF
:101850000649201C01E0111C181C03B0F0BDC04655
:10186000000000000000F87F000000000000F87F8A
:10187000FFF7FFFFFF070000FFFFEFFFFE0700007D
:10188000F7B51F1C161C3C1C0A1C00900191031C80
:10189000391C301C544008D5802000063B18321CEF
:1018A00000980199FFF700FF7BE0BA4204D2734031
:1018B00058406240614043403D4E3E4C150D2E4025
:1018C000A64267D00C0D2C1BB4425AD01203090358
:1018D00080267603120B090B324331431F2C10D89C
:1018E0000E1CE64092192027061CE6403C1BA14036
:1018F00031435B188B42894149425218011CA14077
:1019000014E0352C12D8261C203E0F1CF740DB19A2
:10191000BB42BF417F42D21940273C1BA140041C5F
:10192000F4402143000601D0FF200143900218D566
:101930000133584258411218002901D102218B432A
:101940002905540864181C496000884205D85B08C2
:10195000D207181C211C104323E001352905002063
:101960001FE0013D002909DA01335842584112189D
:1019700080200006814201D101218B432D055119A0
:101980000EE00E498C4205D8002C08D1D20FD107A9
:10199000201C06E0110302D00449034801E0111C99
:1019A000181C03B0F0BDC046000000000000F87F26
:1019B000FFF7FFFFFF070000FFFFDFFFFE0700004C
:1019C00000B50A0D0B1C0A498A1AFF2A07D8DB0248
:1019D000400D184380231B061843D04007E0054AFA
:1019E00080209B18C005984280414042013800BDCC
:1019F0001E040000000010C0F8B5C30DFF220C1C2F
:101A000013404440002B3BD0934239D0CD0D1540BC
:101A100036D0954234D080221206ED180302080217
:101A2000002110431A430B1C00F000FA002901DAD0
:101A30007F3D01E0803D4900E40F0B0AE407EA0521
:101A400023438027FD269B18090600223F06AE424D
:101A50005241CE19002E04D0002A02D0C90F5818C6
:101A60002CE00133002801D101218B43181C002AEE
:101A700024D1002D02DBFF23DB051C43201C1DE0CD
:101A80000F4B4000984205D84A009A4206D8E40F0E
:101A9000E00713E0FF231B0698420ED1FF23490005
:101AA0001B06994209D8000E07D0090E05D0E40F95
:101AB000FF20E407C005204300E00248F8BDC0460F
:101AC000FFFFFFFE0000C07FF0B5C20DFF242240E3
:101AD0004DD0A2424BD0CB0D234048D0A34246D09C
:101AE0000E1C8025D41A2D060B0246400002284306
:101AF0001D436B08013B42089A4202DA211C7D31EA
:101B000002E0211C52107E31F00F8024C0013F26DC
:101B10001A2524045200D71A00D43A1C5200D71AAE
:101B200000D43A1C5200D71A00D43A1C5200D71ADB
:101B300000D43A1C5200D71A00D43A1C5200D71ACB
:101B400000D43A1C97063843E841B2432042E1D022
:101B50005200D31ADB43DB0FC018FD2902D8C90598
:101B600040181FE0C00FC007002914DA1AE0FF2553
:101B700044002D06AC4214D84A00AA4211D80B1CCE
:101B800003435B001B0E0CD04840C00FC007230E60
:101B900008D0AA4203D0FF23DB05184302E0944299
:101BA00000D10148F0BDC0460000C07F70B50B1CDD
:101BB000434005D580221206891800F089F878E0A4
:101BC000884204D2802212069B1858405940C20D08
:101BD000CC0DD3B2141BFF2B66D09C4260D0802664
:101BE000360609020002314330430E1CE640851BD5
:101BF00012D5304BD205ED18280A82182D06101C7C
:101C0000002D56D120231C1BA140501E002950D16D
:101C10000123101C98434CE06B0018D580331D1233
:101C2000D00528181B0602D0FE231A4241D12023DA
:101C30001C1BA140431E002902D101239843031C11
:101C4000FE210A4201D1DB0FDB07181C31E0002026
:101C5000002B2ED01848D105834201D91B0A06E07B
:101C60001648834201D9083A01E06B02103A144841
:101C7000834201D81B01043A1248834201D89B00D9
:101C8000023A1148834201D85B00013A901EC00518
:101C9000021C4A40C018002A0BDAC80FC00708E02F
:101CA000002C06D1201C04E0430201D1002C00D1FD
:101CB000064870BD80000080FFFFFF00FFFF0000AE
:101CC000FFFF0F00FFFF3F00FFFF7F000000C07F0E
:101CD00070B50B1C434005D580231B06C918FFF7C0
:101CE00065FF44E0884201D258405940C20DFF24AC
:101CF000151C2540A54237D0CB0DD31AAB422ED0B0
:101D000080252D0609020002294328430D1CDD40D1
:101D10002818A8420DD3164DD2054419200A801860
:101D2000240624D12022D31A994020D1012398439C
:101D30001DE0461CFF360132700AD5054019F60534
:101D400002D01440FF2C12D12024E31A994001D173
:101D500001239843D2B2FF2A09D1281C07E0002BA7
:101D600005D1C00FC00702E0430200D0014870BD9A
:101D7000800000800000C07F00B500282BD0030C3D
:101D800001D1000402E080231B05C918030E01D114
:101D9000000202E08023DB04C918030F01D1000117
:101DA00002E080239B04C918830F01D1800002E068
:101DB00080235B04C918002801DB400002E0802377
:101DC0001B04C918803003125918000601D10123E1
:101DD0009943081C00E0002000BD08B5C10FC907E9
:101DE00000D040428023DB05C918FFF7C5FF08BDBE
:101DF00010B5E023C210DB051343FF2109051C1CAD
:101E00000C4007D042078C4207D0C8242406191979
:101E1000101C08E0DB0FDB0703E019030A4300D0C6
:101E2000014B191C002010BD0000F87F10B5434382
:101E30005143C918040C130C5C43091992B2040CE9
:101E4000544380B2434350432204240C8018614120
:101E50001A041B0C8018594110BD8446830708D111
:101E60008B0706D1131F04D304C904C0043BFBD263
:101E70001A1D524205D0891A801A8B5C8354013294
:101E8000FBD1604670478446043A09D3830707D1E3
:101E900009060B0A19430B0C1943043A02C0FCD281
:101EA000043203D001700130013AFBD16046704723
:101EB00070B50C4D2B68002B01D10B4B2B60C41C53
:101EC0002E6803239C433419201C00F011F80028CD
:101ED00001D12C6004E0054B0C2201261A607642E9
:101EE000301C70BD801100108411001074010010AE
:101EF00000B5084B6A469A4202D90123904206D2A5
:101F0000054B002B03D0002298425241131C181C91
:101F100000BDC046841100100000000030013001F7
:101F20003001300130013001310131013201320123
:101F300033013401340135013601370138013901EB
:101F40003A013C013D013E01400141014301440190
:101F50004601480149014B014D014F015101530117
:101F6000560158015A015D015F0162016401670178
:101F700069016C016F017201750178017B017E01BD
:101F80008101850188018B018F01920196019A01DF
:101F90009D01A101A501A901AD01B101B501B901E1
:101FA000BD01C101C601CA01CF01D301D801DC01C5
:101FB000E101E601EA01EF01F401F901FE0103028A
:101FC00008020E02130218021E02230229022E0228
:101FD000340239023F0245024B02510256025C02B2
:101FE000630269026F0275027B02820288028E021E
:101FF00095029B02A202A902AF02B602BD02C40270
:10200000CA02D102D802DF02E602EE02F502FC02A9
:1020100003030B03120319032103280330033803BE
:102020003F0347034F0357035E0366036E037603C4
:102030007E0386038E0396039F03A703AF03B803B3
:10204000C003C803D103D903E203EA03F303FC038B
:1020500004040D0416041E04270430043904420449
:102060004B0454045D0466046F04780482048B04FA
:1020700094049D04A704B004B904C304CC04D6049A
:10208000DF04E904F204FC0406050F051905230525
:102090002C05360540054A0554055D0567057105A3
:1020A0007B0585058F059905A305AD05B705C20517
:1020B000CC05D605E005EA05F405FF05090613067B
:1020C0001E06280632063D06470651065C066606D1
:1020D00070067B06850690069A06A506AF06BA0628
:1020E000C406CF06DA06E406EF06F90604070F0772
:1020F000190724072E07390744074E0759076407B5
:102100006E07790784078F079907A407AF07B907F8
:10211000C407CF07D907E407EF07FA0704080F0839
:102120001A0825082F083A0845084F085A08650874
:1021300070087A08850890089A08A508B008BA08B7
:10214000C508D008DA08E508F008FA0805090F09FB
:102150001A0925092F093A0944094F09590964093F
:102160006E09790983098E099809A309AD09B70990
:10217000C209CC09D609E109EB09F509000A0A0AE6
:10218000140A1E0A280A330A3D0A470A510A5B0A42
:10219000650A6F0A790A830A8D0A970AA10AAB0AAF
:1021A000B50ABF0AC80AD20ADC0AE60AEF0AF90A27
:1021B000030B0C0B160B1F0B290B320B3C0B450BA7
:1021C0004F0B580B610B6B0B740B7D0B860B900B3D
:1021D000990BA20BAB0BB40BBD0BC60BCF0BD80BE3
:1021E000E10BE90BF20BFB0B040C0C0C150C1D0C9A
:1021F000260C2E0C370C3F0C480C500C580C610C64
:10220000690C710C790C810C890C910C990CA10C46
:10221000A90CB10CB90CC00CC80CD00CD70CDF0C3D
:10222000E60CEE0CF50CFC0C040D0B0D120D190D4B
:10223000200D280D2F0D350D3C0D430D4A0D510D70
:10224000580D5E0D650D6B0D720D780D7F0D850DB2
:102250008B0D920D980D9E0DA40DAA0DB00DB60D0F
:10226000BC0DC10DC70DCD0DD30DD80DDE0DE30D89
:10227000E80DEE0DF30DF80DFE0D030E080E0D0E1C
:10228000120E170E1B0E200E250E290E2E0E330ECB
:10229000370E3B0E400E440E480E4D0E510E550E9D
:1022A000590E5D0E600E640E680E6C0E6F0E730E8E
:1022B000760E7A0E7D0E800E840E870E8A0E8D0E9F
:1022C000900E930E960E990E9B0E9E0EA10EA30ECF
:1022D000A60EA80EAA0EAD0EAF0EB10EB30EB50E21
:1022E000B70EB90EBB0EBD0EBE0EC00EC20EC30E93
:1022F000C50EC60EC70EC80ECA0ECB0ECC0ECD0E26
:10230000CE0ECF0ECF0ED00ED10ED10ED20ED20EDB
:10231000D30ED30ED30ED40ED40ED40ED40ED40EB0
:10232000D40ED30ED30ED30ED20ED20ED10ED10EAA
:10233000D00ECF0ECF0ECE0ECD0ECC0ECB0ECA0EC3
:10234000C80EC70EC60EC50EC30EC20EC00EBE0E00
:10235000BD0EBB0EB90EB70EB50EB30EB10EAF0E5D
:10236000AD0EAA0EA80EA60EA30EA10E9E0E9B0EDB
:10237000990E960E930E900E8D0E8A0E870E840E79
:10238000800E7D0E7A0E760E730E6F0E6C0E680E3A
:10239000640E600E5D0E590E550E510E4D0E480E18
:1023A000440E400E3B0E370E330E2E0E290E250E18
:1023B000200E1B0E170E120E0D0E080E030EFE0D34
:1023C000F80DF30DEE0DE80DE30DDE0DD80DD30D78
:1023D000CD0DC70DC10DBC0DB60DB00DAA0DA40DD0
:1023E0009E0D980D920D8B0D850D7F0D780D720D44
:1023F0006B0D650D5E0D580D510D4A0D430D3C0DD5
:10240000350D2F0D280D200D190D120D0B0D040D7E
:10241000FC0CF50CEE0CE60CDF0CD70CD00CC80C49
:10242000C00CB90CB10CA90CA10C990C910C890C25
:10243000810C790C710C690C610C580C500C480C17
:102440003F0C370C2E0C260C1D0C150C0C0C040C20
:10245000FB0BF20BE90BE10BD80BCF0BC60BBD0B43
:10246000B40BAB0BA20B990B900B860B7D0B740B73
:102470006B0B610B580B4F0B450B3C0B320B290BB5
:102480001F0B160B0C0B030BF90AEF0AE60ADC0A0A
:10249000D20AC80ABF0AB50AAB0AA10A970A8D0A6E
:1024A000830A790A6F0A650A5B0A510A470A3D0ADC
:1024B000330A280A1E0A140A0A0A000AF509EB0957
:1024C000E109D609CC09C209B709AD09A3099809E0
:1024D0008E09830979096E09640959094F0944096C
:1024E0003A092F0925091A090F090509FA08F00800
:1024F000E508DA08D008C508BA08B008A5089A089F
:10250000900885087A08700865085A084F08450839
:102510003A082F0825081A080F080408FA07EF07D9
:10252000E407D907CF07C407B907AF07A40799077E
:102530008F07840779076E07640759074E0744071A
:1025400039072E07240719070F070407F906EF06B6
:10255000E406DA06CF06C406BA06AF06A5069A0652
:10256000900685067B06700666065C0651064706E1
:102570003D06320628061E0613060906FF05F40569
:10258000EA05E005D605CC05C205B705AD05A305EE
:1025900099058F0585057B05710567055D05540562
:1025A0004A05400536052C05230519050F050605C6
:1025B000FC04F204E904DF04D604CC04C304B90427
:1025C000B004A7049D0494048B04820478046F046F
:1025D00066045D0454044B044204390430042704A7
:1025E0001E0416040D040404FC03F303EA03E203CF
:1025F000D903D103C803C003B803AF03A7039F03E4
:1026000096038E0386037E0376036E0366035E03E2
:1026100057034F0347033F033803300328032103C5
:10262000190312030B030303FC02F502EE02E60298
:10263000DF02D802D102CA02C402BD02B602AF0252
:10264000A902A2029B0295028E02880282027B02EC
:1026500075026F02690263025C02560251024B026C
:1026600045023F02390234022E02290223021E02D1
:10267000180213020E0208020302FE01F901F4011E
:10268000EF01EA01E601E101DC01D801D301CF014C
:10269000CA01C601C101BD01B901B501B101AD0158
:1026A000A901A501A1019D019A01960192018F0145
:1026B0008B018801850181017E017B017801750113
:1026C00072016F016C0169016701640162015F01C0
:1026D0005D015A0158015601530151014F014D014D
:1026E0004B014901480146014401430141014001B8
:1026F0003E013D013C013A01390138013701360103
:10270000350134013401330132013201310131012B
:102710003001300130013001300130010000000093
:1027200000000000000000000000000001000000A8
:102730003D0900000200000002000000000000004F
:102740000100010000000000000000000100010085
:102750000200000000000000010001000400000071
:102760000000000001000100060000000000000061
:102770000000000000000000000000000000000059
:1027800001000000C5080000020000000200000077
:1027900000000000200100000800000264000800A2
:1027A00020000000080000000700000003000000F7
:1027B0000200000001000000010000000100030011
:1027C0000501000001000000000000000100000001
:1027D000000000009D080000E5030000B1080000B3
:1027E000060100006300000000000000010000007E
:1027F00000000000C903000071030000AD030000E9
:1028000002000000640000000000005000000150C1
:0828100000000250000003501B
:1028180002000000F81FFF1F01100000F90F000060
:10282800E90F0000000000000000000000000000A8
:102838000000000000000000F11FFF1F744004406A
:10284800784004407C40044080400440904004406C
:10285800944004406C40044098400440006CDC0202
:040000030000010DEB
:00000001FF
